:100000000C9481000C94AE000C94A9000C94A900EF
:100010000C94A9000C94A9000C94A9000C94A900BC
:100020000C94A9000C94B0010C94A9000C94A900A4
:100030000C94A9000C94A9000C94A9000C94A9009C
:100040000C94A9000C94A9000C94A9000C94A9008C
:100050000C94A9000C94A9000C94A9000C94A9007C
:100060000C94A9000C94A9000C94A9000C94A9006C
:100070000C94A9000C94A9000C94A90007634236C3
:10008000B79BD8A71A39685618AEBAAB558C1D3C29
:10009000B7CC5763BD6DEDFD753EF6177231BF00ED
:1000A0000000803F08000000BE922449123EABAA27
:1000B000AA2ABECDCCCC4C3E00000080BEABAAAA82
:1000C000AA3E00000000BF000000803F00000000CA
:1000D00000084178D3BB4387D1133D190E3CC3BD03
:1000E0004282AD2B3E68EC8276BED98FE1A93E4CB0
:1000F00080EFFFBE01C4FF7F3F00000000008204CC
:10010000980411241FBECFEFD8E0DEBFCDBF11E0B1
:10011000A0E0B1E0E8E0F1E102C005900D92A2306C
:10012000B107D9F721E0A2E0B1E001C01D92A731EB
:10013000B207E1F710E0C0E8D0E004C02197FE016B
:100140000E947108CF37D107C9F70E94B6030C94FB
:1001500077080C940000F894789408951F920F92F9
:100160000FB60F9211242F933F934F935F936F938A
:100170007F938F939F93AF93BF93EF93FF938FE5FD
:100180009AEE0197F1F700C0000080910001811103
:1001900020C081E08093000165EF86E191E00E943C
:1001A0006D036091000186E191E00E946D03E09A89
:1001B000FF91EF91BF91AF919F918F917F916F913F
:1001C0005F914F913F912F910F900FBE0F901F9015
:1001D000189510920001E0CFF8945398E89AE9E658
:1001E000F0E080818160808378940895EF92FF929F
:1001F0000F931F93CF93DF93CDB7DEB72B970FB637
:10020000F894DEBF0FBECDBFE982FA820B831C8358
:100210002D833E834F83588769877A878B876F2D1D
:1002200086E191E00E946D0310E0812F90E029812A
:1002300030E08217930774F423E030E02C0F3D1F69
:10024000820F931FFC01608186E191E00E946D03A3
:100250001F5FEBCF2B960FB6F894DEBF0FBECDBF5E
:10026000DF91CF911F910F91FF90EF900895813012
:1002700021F48CE091E00C94A402823021F48CE013
:1002800091E00C948E02811104C08CE091E00C94FA
:10029000080308958823B9F05CF4853B51F11CF400
:1002A0008C3949F108958E3C11F1873ED9F00895BB
:1002B000823391F01CF4893151F008958B3471F040
:1002C000843671F008958AE091E00C9452036CE852
:1002D0008AE091E00C944D0364EBFACF68ECF8CF20
:1002E0006FEFF6CF6CE88AE091E00C94430364EB87
:1002F000FACF68ECF8CF6FEFF6CF8823B9F05CF453
:10030000853B51F11CF48C3949F108958E3C11F173
:10031000873ED9F00895823391F01CF4893151F071
:1003200008958B3471F0843671F008958AE091E07D
:100330000C9452036CE88AE091E00C94480364EB5F
:10034000FACF68ECF8CF6FEFF6CF6CE88AE091E077
:100350000C943E0364EBFACF68ECF8CF6FEFF6CF66
:100360001F920F920FB60F9211242F933F934F932A
:100370005F936F937F938F939F93AF93BF93EF930D
:10038000FF938DE091E00E947B038DE091E00E945D
:10039000A203909309018093080160910801709174
:1003A000090180E090E00E9445059B01AC0166E6F2
:1003B0007EED82E895E40E94A40428E631E94DE848
:1003C0005FE30E94D3050E9423060E9416057093E6
:1003D0000501609304018DE091E00E94A6039093D3
:1003E000070180930601609106017091070180E08A
:1003F00090E00E9445059B01AC0166E67EED82E837
:1004000095E40E94A40428E631E94DE85FE30E94E8
:10041000D3050E9423060E94160570930301609382
:10042000020166EF86E191E00E946D036091040194
:100430007091050186E191E00E946D0367EF86E10E
:1004400091E00E946D03609102017091030186E1C9
:1004500091E00E946D03FF91EF91BF91AF919F9149
:100460008F917F916F915F914F913F912F910F905D
:100470000FBE0F901F9018951092B2008093B3009A
:10048000E0EBF0E0808182608083E1EBF0E080814E
:1004900087608083E0E7F0E0808182608083089558
:1004A00010927C0086E880937A00089510927A007A
:1004B000089580917C00807E80937C0080917C00F8
:1004C0006770682B60937C0080917A0080648093D1
:1004D0007A0080917A0084FFFCCF80917A0080615D
:1004E00080937A00209178008091790090E0982F95
:1004F0008827820F911D089522E4FC01208308952E
:10050000FC016F7D613411F4608306C06234E1F355
:100510006334D1F36434C1F308950895FC018081FC
:10052000813411F482E082B98081823411F482E056
:1005300085B98081833411F482E082B9808184346A
:1005400011F482E085B90895FC018081813411F4B1
:1005500081E082B98081823411F481E085B98081A3
:10056000833411F481E082B98081843411F481E014
:1005700085B90895FC018081813411F481E082B94C
:100580008FE19EE40197F1F700C0000082E082B99C
:100590008FE99FE00197F1F700C00000808182346D
:1005A00011F481E085B98FE19EE40197F1F700C075
:1005B000000082E085B98FE99FE00197F1F700C064
:1005C00000008081833411F481E088B98FE19EE4DA
:1005D0000197F1F700C0000082E088B98FE99FE041
:1005E0000197F1F700C000008081843411F481E0AC
:1005F0008BB98FE19EE40197F1F700C0000082E023
:100600008BB98FE99FE00197F1F700C000000895D2
:10061000FC018081813409F412B88081823409F4AC
:1006200015B88081833409F412B88081843409F4C8
:1006300015B8089570E07093890060938800E0E831
:10064000F0E08081816A8083E1E8F0E0808182606F
:10065000808310928200089570E070938B00609305
:100660008A00E0E8F0E08081816A8083E1E8F0E0E0
:100670008081826080831092820008952BB12F6B5D
:100680002BB90C941A032BB12F672BB90C942C03A4
:100690002BB120742BB90C941A032BB120782BB9F1
:1006A0000C942C03CF93DF93EC0160E00E941A03BB
:1006B00060E0CE01DF91CF910C942C031092C50025
:1006C0008FEC8093C40080E28093C00088E1809327
:1006D000C10086E08093C20008958091C00085FF2C
:1006E000FCCF6093C60008958091C00087FFFCCFC7
:1006F0008091C6000895CF93DF93EC0160E00E94E3
:1007000059029A83898361E0CE010E9459029C8339
:100710008B8329813A812C3C310518F441E04D83CB
:100720004F838C3C910518F441E04E8348872D3C63
:10073000310508F01D828D3C910508F01E82DF9185
:10074000CF910895FC01818192810895FC018381FC
:1007500094810895FC0185810895FC0186810895A6
:10076000FC0187810895FC0180850895CF93DF9374
:10077000CDB7DEB7E7970FB6F894DEBF0FBECDBF9B
:1007800086E191E00E945E038FEF90E00E943C02C0
:100790000E94EC008AB1806F8AB911B88FEF84B9DA
:1007A0008BE0FE01BD96DF01382F1D923A95E9F7E7
:1007B00033E03DA790EF9EA799E49FA79AE698ABF8
:1007C00099E699AB3B97DF01982F1D929A95E9F72F
:1007D00024E02AA391EF9BA396E39CA399E39DA316
:1007E00097E39EA392E39FA33B97DF01982F1D926F
:1007F0009A95E9F791E09F8B42EF488F398F3B97AD
:10080000DF01382F1D923A95E9F72C8723EF2D87CA
:1008100021E32E8738E33F873DE2388B298B3B97D6
:10082000DF011D928A95E9F7998384EF8A839B8380
:10083000D12C86E191E00E947403182F88E0810F8B
:10084000833028F486E191E00E947403D82E193F8A
:1008500009F454C030F4183F61F78D2D0E947D01DA
:10086000E8CF1A3F09F446C01B3F19F7F894EDA4EE
:10087000FEA40FA518A929A93AA94BA95CA96DA99D
:100880007EA98FA90E94F600EAA0FBA00CA11DA1E1
:100890002EA13FA148A559A56AA57BA58CA50E94BC
:1008A000F600EC84FD840E851F85288939894A89E4
:1008B0005B896C897D898E890E94F600EF88F88CAF
:1008C000098D1A8D2B8D3C8D4D8D5E8D6F8D78A190
:1008D00089A10E94F600E980FA800B811C812D819C
:1008E0003E814F81588569857A858B850E94F60007
:1008F00078949FCF8D2D0E9437019BCF8D2D0E9424
:100900004A0197CF8DE091E00E945002EDE0F1E0C6
:100910001282118214821382158216821782108627
:100920008CE091E00E947C028BE091E00C945002FC
:100930008BE091E00E9456028CE091E00E948D02D3
:100940008DE091E00C9456020E94B8040C94990535
:100950000E94920558F00E948B0540F029F45F3FF9
:1009600029F00C94820551110C94CD050C94880546
:100970000E94AA0568F39923B1F3552391F3951BBF
:10098000550BBB27AA2762177307840738F09F5FB0
:100990005F4F220F331F441FAA1FA9F335D00E2E1D
:1009A0003AF0E0E832D091505040E695001CCAF78A
:1009B0002BD0FE2F29D0660F771F881FBB1F26174D
:1009C00037074807AB07B0E809F0BB0B802DBF0124
:1009D000FF2793585F4F3AF09E3F510578F00C94F3
:1009E00082050C94CD055F3FE4F3983ED4F38695E1
:1009F00077956795B795F7959F5FC9F7880F911D14
:100A00009695879597F90895E1E0660F771F881FFF
:100A1000BB1F621773078407BA0720F0621B730BB2
:100A2000840BBA0BEE1F88F7E09508950E94B2057B
:100A300088F09F5798F0B92F9927B751B0F0E1F09F
:100A4000660F771F881F991F1AF0BA95C9F714C04F
:100A5000B13091F00E94CC05B1E008950C94CC0522
:100A6000672F782F8827B85F39F0B93FCCF3869588
:100A700077956795B395D9F73EF4909580957095E5
:100A800061957F4F8F4F9F4F0895E89409C097FB62
:100A90003EF490958095709561957F4F8F4F9F4F55
:100AA0009923A9F0F92F96E9BB279395F695879599
:100AB00077956795B795F111F8CFFAF4BB0F11F45C
:100AC00060FF1BC06F5F7F4F8F4F9F4F16C0882303
:100AD00011F096E911C0772321F09EE8872F762F39
:100AE00005C0662371F096E8862F70E060E02AF07A
:100AF0009A95660F771F881FDAF7880F9695879566
:100B000097F9089597F99F6780E870E060E008958D
:100B10009FEF80EC089500240A9416161706180615
:100B20000906089500240A941216130614060506F1
:100B30000895092E0394000C11F4882352F0BB0F82
:100B400040F4BF2B11F460FF04C06F5F7F4F8F4FE5
:100B50009F4F089557FD9058440F551F59F05F3F20
:100B600071F04795880F97FB991F61F09F3F79F0CF
:100B700087950895121613061406551FF2CF469551
:100B8000F1DF08C0161617061806991FF1CF8695D3
:100B90007105610508940895E894BB2766277727B7
:100BA000CB0197F90895FA01EE0FFF1F309621054A
:100BB0003105A1F16115710561F48038BFE39B0730
:100BC00049F168949038810561F08038BFEF9B0748
:100BD00041F099234AF5FF3FE1053105210519F15F
:100BE000E8940894E795D901AA2329F4AB2FBE2FE6
:100BF000F85FD0F310C0FF5F70F4A695E0F7F73907
:100C000050F019F0FF3A38F49F779F930DD00F9072
:100C100007FC9058089546F00C94880560E070E059
:100C200080E89FE308954FE79F775F934F933F934B
:100C30002F930E941B072F913F914F915F910E942C
:100C400097070C944F060E94B205E8F09E37E8F033
:100C50009639B8F49E3848F4672F782F8827985F24
:100C6000F9CF86957795679593959539D0F3B62FFB
:100C7000B1706B0F711D811D20F487957795679575
:100C800093950C9481060C949C060C94CD0529F444
:100C900016F00C9482050C94CC050C9488050E94E7
:100CA000B205A8F39638A0F707F80F92E8942BE363
:100CB0003AEA48EB5FE70E94AD070F920F920F925E
:100CC0004DB75EB70F920E946307ECE7F0E00E9419
:100CD000AA064F915F91EF91FF91E595EE1FFF1FDF
:100CE00049F0FE57E0684427EE0F441FFA95E1F7FC
:100CF0004195550B0E94DD060F9007FE0C94D1061E
:100D00000895882371F4772321F09850872B762F4C
:100D100007C0662311F499270DC09051862B70E00F
:100D200060E02AF09A95660F771F881FDAF7880F20
:100D30009695879597F908959F3F31F0915020F44B
:100D4000879577956795B795880F911D96958795A7
:100D500097F90895DF93CF931F930F93FF92EF922C
:100D6000DF927B018C01689406C0DA2EEF010E94AD
:100D7000AA07FE01E894A5912591359145915591D9
:100D8000A6F3EF010E941C08FE019701A801DA9466
:100D900069F7DF90EF90FF900F911F91CF91DF9156
:100DA00008959B01AC0160E070E080E89FE30C9443
:100DB000A4040C9482050C949C060E94B205D8F3FE
:100DC0009923C9F3940F511DA3F39150504094F00F
:100DD00059F0882332F0660F771F881F91505040DA
:100DE000C1F79E3F51052CF7880F911D9695879569
:100DF00097F908955F3FACF0983E9CF0BB2786952D
:100E000077956795B79508F4B1609395C1F7BB0FD7
:100E100058F711F460FFE8CF6F5F7F4F8F4F9F4F00
:100E2000E3CF0C94CD0516F00C949C060C94880529
:100E300068940C9482050E94B205A8F39923C1F32B
:100E4000AEF3DF93CF931F930F93FF92C92FDD274C
:100E500088232AF02197660F771F881FDAF720E092
:100E600030E040E85FEB9FE3883920F0803E38F0C7
:100E700021968F770E940508E4EAF0E004C00E9402
:100E80000508E1EDF0E00E94AA068B01BE01EC012D
:100E9000FB2E6F5771097595771F880B990B0E9470
:100EA000470528E132E741E35FE30E94AA07AF2D3F
:100EB0009801AE01FF900F911F91CF91DF910E9499
:100EC0001C080C949905FA01DC01AA0FBB1F9B01B9
:100ED000AC01BF5728F4222733274427507820C07D
:100EE000B75190F4AB2F0024469537952795011CF8
:100EF000A395D2F3002071F0220F331F441FB39546
:100F0000DAF30ED00C94040861307105A0E88A076A
:100F1000B94630F49B01AC01662777278827907883
:100F2000309621F0208331834283538308950E94B9
:100F3000AA070C9499050E948B0538F00E9492052F
:100F400020F0952311F00C9482050C94880511244F
:100F50000C94CD050E94AA0570F3959FC1F3950FDF
:100F600050E0551F629FF001729FBB27F00DB11D2D
:100F7000639FAA27F00DB11DAA1F649F6627B00DBD
:100F8000A11D661F829F2227B00DA11D621F739FA6
:100F9000B00DA11D621F839FA00D611D221F749FB4
:100FA0003327A00D611D231F849F600D211D822FFB
:100FB000762F6A2F11249F5750409AF0F1F0882322
:100FC0004AF0EE0FFF1FBB1F661F771F881F91504F
:100FD0005040A9F79E3F510580F00C9482050C9477
:100FE000CD055F3FE4F3983ED4F3869577956795FA
:100FF000B795F795E7959F5FC1F7FE2B880F911D79
:101000009695879597F908955058BB27AA270E946F
:101010001C080C9499050E948B0538F00E949205DB
:1010200020F039F49F3F19F426F40C9488050EF44F
:10103000E095E7FB0C948205E92F0E94AA0558F37E
:10104000BA17620773078407950720F079F4A6F5AD
:101050000C94CC050EF4E0950B2EBA2FA02D0B01AD
:10106000B90190010C01CA01A0011124FF27591BED
:1010700099F0593F50F4503E68F11A16F040A22FF3
:10108000232F342F4427585FF3CF46953795279564
:10109000A795F0405395C9F77EF41F16BA0B620B63
:1010A000730B840BBAF09150A1F0FF0FBB1F661FAA
:1010B000771F881FC2F70EC0BA0F621F731F841FED
:1010C00048F4879577956795B795F7959E3F08F013
:1010D000B0CF9395880F08F09927EE0F97958795D5
:1010E0000895EE0FFF1F0590F491E02D099410E094
:1010F000C0E8D0E004C0FE010E9471082196C1380A
:08110000D107C9F7F894FFCFF5
:021108000100E4
:00000001FF
