:100000000C9481000C94A9000C94A9000C94A900F4
:100010000C94A9000C94A9000C94A9000C94A900BC
:100020000C94A9000C94B6000C94A9000C94A9009F
:100030000C94A9000C94A9000C94A9000C94A9009C
:100040000C94A9000C94A9000C94A9000C94A9008C
:100050000C94A9000C94A9000C94A9000C94A9007C
:100060000C94A9000C94A9000C94A9000C94A9006C
:100070000C94A9000C94A9000C94A90007634236C3
:10008000B79BD8A71A39685618AEBAAB558C1D3C29
:10009000B7CC5763BD6DEDFD753EF6177231BF00ED
:1000A0000000803F08000000BE922449123EABAA27
:1000B000AA2ABECDCCCC4C3E00000080BEABAAAA82
:1000C000AA3E00000000BF000000803F00000000CA
:1000D00000084178D3BB4387D1133D190E3CC3BD03
:1000E0004282AD2B3E68EC8276BED98FE1A93E4CB0
:1000F00080EFFFBE01C4FF7F3F00000000008E03C1
:10010000A40311241FBECFEFD8E0DEBFCDBF11E0A6
:10011000A0E0B1E0E0E2FFE002C005900D92A23065
:10012000B107D9F721E0A2E0B1E001C01D92A831EA
:10013000B207E1F710E0C0E8D0E004C02197FE016B
:100140000E947D07CF37D107C9F70E94CE020C94D9
:1001500083070C940000F89411B81AB8E89AE9E6FD
:10016000F0E0808183608083789408951F920F92DD
:100170000FB60F9211242F933F934F935F936F937A
:100180007F938F939F93AF93BF93EF93FF938FE0F2
:1001900091E00E9493028FE091E00E94BA02909356
:1001A000090180930801609108017091090180E0C4
:1001B00090E00E9451049B01AC0166E67EED82E86E
:1001C00095E40E94B00328E631E94DE85FE30E9420
:1001D000DF040E942F050E942204709305016093A2
:1001E00004018FE091E00E94BE029093070180938A
:1001F0000601609106017091070180E090E00E9485
:1002000051049B01AC0166E67EED82E895E40E9414
:10021000B00328E631E94DE85FE30E94DF040E9465
:100220002F050E942204709303016093020166EF80
:100230008EE091E00E9485026091040170910501B9
:100240008EE091E00E94850267EF8EE091E00E94CF
:10025000850260910201709103018EE091E00E949D
:100260008502FF91EF91BF91AF919F918F917F9107
:100270006F915F914F913F912F910F900FBE0F9013
:100280001F9018951092B2008093B300E0EBF0E05D
:10029000808182608083E1EBF0E0808187608083F1
:1002A000E0E7F0E08081826080830895EF92FF9222
:1002B0000F931F93CF93DF93CDB7DEB72B970FB676
:1002C000F894DEBF0FBECDBFE982FA820B831C8398
:1002D0002D833E834F83588769877A878B876F2D5D
:1002E0008EE091E00E94850210E0812F90E029814C
:1002F00030E08217930774F423E030E02C0F3D1FA9
:10030000820F931FFC0160818EE091E00E948502C4
:100310001F5FEBCF2B960FB6F894DEBF0FBECDBF9D
:10032000DF91CF911F910F91FF90EF900895813051
:1003300021F48DE091E00C940002823021F48DE0F4
:1003400091E00C94EA01811104C08DE091E00C94DD
:10035000640208950895089510927C0086E88093C1
:100360007A00089510927A00089580917C00807E32
:1003700080937C0080917C006770682B60937C0088
:1003800080917A00806480937A0080917A0084FF63
:10039000FCCF80917A00806180937A002091780070
:1003A0008091790090E0982F8827820F911D089501
:1003B00022E4FC0120830895FC016F7D613411F477
:1003C000608306C06234E1F36334D1F36434C1F373
:1003D00008950895FC018081813411F482E082B98E
:1003E0008081823411F482E085B98081833411F4F4
:1003F00082E082B98081843411F482E085B9089565
:10040000FC018081813411F481E082B980818234E1
:1004100011F481E085B98081833411F481E082B9DF
:100420008081843411F481E085B90895FC018081D4
:10043000813411F481E082B98FE19EE40197F1F7F4
:1004400000C0000082E082B98FE99FE00197F1F7D8
:1004500000C000008081823411F481E085B98FE111
:100460009EE40197F1F700C0000082E085B98FE9B2
:100470009FE00197F1F700C000008081833411F400
:1004800081E088B98FE19EE40197F1F700C0000098
:1004900082E088B98FE99FE00197F1F700C0000082
:1004A0008081843411F481E08BB98FE19EE401975F
:1004B000F1F700C0000082E08BB98FE99FE001975F
:1004C000F1F700C000000895FC018081813409F437
:1004D00012B88081823409F415B88081833409F41C
:1004E00012B88081843409F415B808951092C500BB
:1004F0008FEC8093C40080E28093C00088E18093F9
:10050000C10086E08093C20008958091C00085FFFD
:10051000FCCF6093C60008958091C00087FFFCCF98
:100520008091C6000895CF93DF93EC0160E00E94B4
:10053000B5019A83898361E0CE010E94B5019C8355
:100540008B8329813A812C3C310518F441E04D839D
:100550004F838C3C910518F441E04E8348872D3C35
:10056000310508F01D828D3C910508F01E82DF9157
:10057000CF910895FC01818192810895FC018381CE
:1005800094810895FC0185810895FC018681089578
:10059000FC0187810895FC0180850895CF93DF9346
:1005A000CDB7DEB7E7970FB6F894DEBF0FBECDBF6D
:1005B0008EE091E00E9476020E94AB008FEF8AB934
:1005C00011B884B98BE0FE01BD96DF01382F1D9272
:1005D0003A95E9F733E03DA790EF9EA799E49FA7EE
:1005E0009AE698AB99E699AB3B97DF01982F1D925D
:1005F0009A95E9F724E02AA391EF9BA396E39CA3A5
:1006000099E39DA397E39EA392E39FA33B97DF010A
:10061000982F1D929A95E9F791E09F8B42EF488FB2
:10062000398F3B97DF01382F1D923A95E9F72C87D8
:1006300023EF2D8721E32E8738E33F873DE2388B78
:10064000298B3B97DF011D928A95E9F7998384EF07
:100650008A839B838EE091E00E948C0280930A0142
:100660008FEF90E00E94420180910A01893F19F0CA
:1006700038F4883F79F78EE091E00E948C02EACF4F
:100680008A3F09F444C08B3F29F7EDA4FEA40FA5CF
:1006900018A929A93AA94BA95CA96DA97EA98FA976
:1006A0000E945601EAA0FBA00CA11DA12EA13FA112
:1006B00048A559A56AA57BA58CA50E945601EC8486
:1006C000FD840E851F85288939894A895B896C8953
:1006D0007D898E890E945601EF88F88C098D1A8DCC
:1006E0002B8D3C8D4D8D5E8D6F8D78A189A10E94E3
:1006F0005601E980FA800B811C812D813E814F815A
:10070000588569857A858B850E945601A3CF8EE036
:1007100091E00E948C020E9497019CCF8FE091E0B3
:100720000E94AC01EFE0F1E0128211821482138288
:1007300015821682178210868DE091E00E94D80102
:100740008CE091E00C94AC018CE091E00E94B2014D
:100750008DE091E00E94E9018FE091E00C94B201FC
:100760000E94C4030C94A5040E949E0458F00E94A9
:10077000970440F029F45F3F29F00C948E04511146
:100780000C94D9040C9494040E94B60468F3992341
:10079000B1F3552391F3951B550BBB27AA2762177D
:1007A0007307840738F09F5F5F4F220F331F441F8A
:1007B000AA1FA9F335D00E2E3AF0E0E832D09150BE
:1007C0005040E695001CCAF72BD0FE2F29D0660FAB
:1007D000771F881FBB1F261737074807AB07B0E8EE
:1007E00009F0BB0B802DBF01FF2793585F4F3AF0F4
:1007F0009E3F510578F00C948E040C94D9045F3F11
:10080000E4F3983ED4F3869577956795B795F79579
:100810009F5FC9F7880F911D9695879597F9089561
:10082000E1E0660F771F881FBB1F621773078407FD
:10083000BA0720F0621B730B840BBA0BEE1F88F70C
:10084000E09508950E94BE0488F09F5798F0B92F54
:100850009927B751B0F0E1F0660F771F881F991FF5
:100860001AF0BA95C9F714C0B13091F00E94D804BB
:10087000B1E008950C94D804672F782F8827B85FCB
:1008800039F0B93FCCF3869577956795B395D9F74D
:100890003EF490958095709561957F4F8F4F9F4F57
:1008A0000895E89409C097FB3EF490958095709563
:1008B00061957F4F8F4F9F4F9923A9F0F92F96E9AC
:1008C000BB279395F695879577956795B795F11121
:1008D000F8CFFAF4BB0F11F460FF1BC06F5F7F4FBE
:1008E0008F4F9F4F16C0882311F096E911C07723D0
:1008F00021F09EE8872F762F05C0662371F096E8D9
:10090000862F70E060E02AF09A95660F771F881FA7
:10091000DAF7880F9695879597F9089597F99F6765
:1009200080E870E060E008959FEF80EC0895002477
:100930000A941616170618060906089500240A9444
:1009400012161306140605060895092E0394000CCA
:1009500011F4882352F0BB0F40F4BF2B11F460FF59
:1009600004C06F5F7F4F8F4F9F4F089557FD905882
:10097000440F551F59F05F3F71F04795880F97FB63
:10098000991F61F09F3F79F087950895121613061D
:100990001406551FF2CF4695F1DF08C0161617064C
:1009A0001806991FF1CF8695710561050894089581
:1009B000E894BB2766277727CB0197F90895FA01BA
:1009C000EE0FFF1F309621053105A1F1611571056C
:1009D00061F48038BFE39B0749F168949038810542
:1009E00061F08038BFEF9B0741F099234AF5FF3F44
:1009F000E1053105210519F1E8940894E795D9013D
:100A0000AA2329F4AB2FBE2FF85FD0F310C0FF5FED
:100A100070F4A695E0F7F73950F019F0FF3A38F482
:100A20009F779F930DD00F9007FC9058089546F044
:100A30000C94940460E070E080E89FE308954FE731
:100A40009F775F934F933F932F930E9427062F9199
:100A50003F914F915F910E94A3060C945B050E9409
:100A6000BE04E8F09E37E8F09639B8F49E3848F4B2
:100A7000672F782F8827985FF9CF869577956795A8
:100A800093959539D0F3B62FB1706B0F711D811D01
:100A900020F487957795679593950C948D050C9424
:100AA000A8050C94D90429F416F00C948E040C9427
:100AB000D8040C9494040E94BE04A8F39638A0F7BE
:100AC00007F80F92E8942BE33AEA48EB5FE70E94BD
:100AD000B9060F920F920F924DB75EB70F920E9418
:100AE0006F06ECE7F0E00E94B6054F915F91EF9141
:100AF000FF91E595EE1FFF1F49F0FE57E068442780
:100B0000EE0F441FFA95E1F74195550B0E94E90558
:100B10000F9007FE0C94DD050895882371F4772368
:100B200021F09850872B762F07C0662311F4992760
:100B30000DC09051862B70E060E02AF09A95660F08
:100B4000771F881FDAF7880F9695879597F908958C
:100B50009F3F31F0915020F4879577956795B79531
:100B6000880F911D9695879597F90895DF93CF93F8
:100B70001F930F93FF92EF92DF927B018C01689499
:100B800006C0DA2EEF010E94B606FE01E894A59198
:100B90002591359145915591A6F3EF010E942807C3
:100BA000FE019701A801DA9469F7DF90EF90FF90BA
:100BB0000F911F91CF91DF9108959B01AC0160E0EF
:100BC00070E080E89FE30C94B0030C948E040C94C6
:100BD000A8050E94BE04D8F39923C9F3940F511DB0
:100BE000A3F39150504094F059F0882332F0660FEF
:100BF000771F881F91505040C1F79E3F51052CF739
:100C0000880F911D9695879597F908955F3FACF0F1
:100C1000983E9CF0BB27869577956795B79508F425
:100C2000B1609395C1F7BB0F58F711F460FFE8CF9F
:100C30006F5F7F4F8F4F9F4FE3CF0C94D90416F017
:100C40000C94A8050C94940468940C948E040E944F
:100C5000BE04A8F39923C1F3AEF3DF93CF931F93A0
:100C60000F93FF92C92FDD2788232AF02197660F63
:100C7000771F881FDAF720E030E040E85FEB9FE362
:100C8000883920F0803E38F021968F770E94110736
:100C9000E4EAF0E004C00E941107E1EDF0E00E94F8
:100CA000B6058B01BE01EC01FB2E6F5771097595DE
:100CB000771F880B990B0E94530428E132E741E328
:100CC0005FE30E94B606AF2D9801AE01FF900F9131
:100CD0001F91CF91DF910E9428070C94A504FA017F
:100CE000DC01AA0FBB1F9B01AC01BF5728F42227D0
:100CF00033274427507820C0B75190F4AB2F0024FD
:100D0000469537952795011CA395D2F3002071F0E5
:100D1000220F331F441FB395DAF30ED00C94100743
:100D200061307105A0E88A07B94630F49B01AC0137
:100D30006627772788279078309621F020833183A3
:100D40004283538308950E94B6060C94A5040E9422
:100D5000970438F00E949E0420F0952311F00C9423
:100D60008E040C94940411240C94D9040E94B604AB
:100D700070F3959FC1F3950F50E0551F629FF001EE
:100D8000729FBB27F00DB11D639FAA27F00DB11D07
:100D9000AA1F649F6627B00DA11D661F829F222790
:100DA000B00DA11D621F739FB00DA11D621F839F17
:100DB000A00D611D221F749F3327A00D611D231FED
:100DC000849F600D211D822F762F6A2F11249F573B
:100DD00050409AF0F1F088234AF0EE0FFF1FBB1F3E
:100DE000661F771F881F91505040A9F79E3F5105FD
:100DF00080F00C948E040C94D9045F3FE4F3983E89
:100E0000D4F3869577956795B795F795E7959F5FA6
:100E1000C1F7FE2B880F911D9695879597F9089538
:100E20005058BB27AA270E9428070C94A5040E94AB
:100E3000970438F00E949E0420F039F49F3F19F483
:100E400026F40C9494040EF4E095E7FB0C948E04C5
:100E5000E92F0E94B60458F3BA1762077307840794
:100E6000950720F079F4A6F50C94D8040EF4E095DB
:100E70000B2EBA2FA02D0B01B90190010C01CA0154
:100E8000A0011124FF27591B99F0593F50F4503EFF
:100E900068F11A16F040A22F232F342F4427585FF1
:100EA000F3CF469537952795A795F0405395C9F709
:100EB0007EF41F16BA0B620B730B840BBAF09150C1
:100EC000A1F0FF0FBB1F661F771F881FC2F70EC060
:100ED000BA0F621F731F841F48F487957795679533
:100EE000B795F7959E3F08F0B0CF9395880F08F01F
:100EF0009927EE0F979587950895EE0FFF1F0590A0
:100F0000F491E02D099410E0C0E8D0E004C0FE01A7
:100F10000E947D072196C138D107C9F7F894FFCF09
:020F20000100CE
:00000001FF
