:100000000C9481000C94A9000C94A9000C94A900F4
:100010000C94A9000C94A9000C94A9000C94A900BC
:100020000C94A9000C943E010C94A9000C94A90016
:100030000C94A9000C94A9000C94A9000C94A9009C
:100040000C94A9000C94A9000C94A9000C94A9008C
:100050000C94A9000C94A9000C94A9000C94A9007C
:100060000C94A9000C94A9000C94A9000C94A9006C
:100070000C94A9000C94A9000C94A90007634236C3
:10008000B79BD8A71A39685618AEBAAB558C1D3C29
:10009000B7CC5763BD6DEDFD753EF6177231BF00ED
:1000A0000000803F08000000BE922449123EABAA27
:1000B000AA2ABECDCCCC4C3E00000080BEABAAAA82
:1000C000AA3E00000000BF000000803F00000000CA
:1000D00000084178D3BB4387D1133D190E3CC3BD03
:1000E0004282AD2B3E68EC8276BED98FE1A93E4CB0
:1000F00080EFFFBE01C4FF7F3F0000000000EE055F
:10010000040611241FBECFEFD8E0DEBFCDBF11E043
:10011000A0E0B1E0E0E1F4E102C005900D92A6326A
:10012000B107D9F721E0A6E2B1E001C01D92A234E7
:10013000B207E1F710E0C0E8D0E004C02197FE016B
:100140000E94F509CF37D107C9F70E941D050C940D
:10015000FB090C94000066E487E291E00E94B4047D
:100160002FEF81EE94E0215080409040E1F700C0F5
:10017000000087E291E00E94C2042FEF80E792E046
:10018000215080409040E1F700C000006BE487E21E
:1001900091E00E94B4042FEF81EE94E02150804062
:1001A0009040E1F700C0000087E291E00E94C204A5
:1001B0002FEF80E792E0215080409040E1F700C0AF
:1001C000000060E587E291E00E94B4042FEF81EE29
:1001D00094E0215080409040E1F700C0000087E2A9
:1001E00091E00C94C2048091390181110EC02FEF6F
:1001F00089E698E1215080409040E1F700C000007E
:100200008091390181110E94AB00809138018111E8
:100210000EC02FEF89E698E1215080409040E1F731
:1002200000C000008091380181110C94AB0008954A
:1002300080913A0190913B01CD9740F48091370134
:10024000882341F090913901992311F080E00895BD
:1002500010923701089580913C0190913D01CD9716
:1002600040F480913601882341F090913801992320
:1002700011F080E008951092360108951F920F92B8
:100280000FB60F9211242F933F934F935F936F9369
:100290007F938F939F93AF93BF93EF93FF9389E2E5
:1002A00091E00E94C40489E291E00E9401059093CC
:1002B000410180934001609140017091410180E0D3
:1002C00090E00E94B5069B01AC0166E67EED82E8F7
:1002D00095E40E94140628E631E94DE85FE30E94A8
:1002E00043070E9493070E94860670933D01609326
:1002F0003C0189E291E00E94050590933F018093C3
:100300003E0160913E0170913F0180E090E00E94CB
:10031000B5069B01AC0166E67EED82E895E40E949D
:10032000140628E631E94DE85FE30E9443070E9486
:1003300093070E94860670933B0160933A01809177
:100340003A0190913B01CC9710F4109239018091C1
:100350003C0190913D01CC9710F4109238018091AE
:100360003A0190913B01CC9728F081E080933901CC
:100370008093370180913C0190913D01CC9728F00A
:1003800081E08093380180933601FF91EF91BF9116
:10039000AF919F918F917F916F915F914F913F911D
:1003A0002F910F900FBE0F901F901895F894809189
:1003B0003C0190913D010D9730F080913C0190916E
:1003C0003D014197D0F080913C0190913D010D9706
:1003D00030F48FE291E00E94C00344E613C08091A4
:1003E0003C0190913D01419730F080913C0190910A
:1003F0003D01499768F0789408958FE291E00E945A
:10040000D60348E768E788E291E00E944C04F3CF06
:100410008FE291E00E94C00348E764E6F4CFF894CD
:1004200080913A0190913B010D9730F080913A0113
:1004300090913B014197D8F080913A0190913B0116
:100440000D9738F48FE291E00E94C00342E864E621
:1004500014C080913A0190913B01419730F0809116
:100460003A0190913B01499768F0789408958FE2A2
:1004700091E00E94D60348E768E788E291E00E9495
:100480004C04F3CF8FE291E00E94C00344E66EE695
:10049000F4CFCF93DF93F8948FE291E00E94D603DC
:1004A00040E060E088E291E00E944C0488EE93E036
:1004B000EFECF7E03197F1F700C000000197C1F7CA
:1004C00040E064EB88E291E00E944C0488E592E011
:1004D000EFECF7E03197F1F700C000000197C1F7AA
:1004E00040E060E088E291E00E944C0484E893E000
:1004F000EFECF7E03197F1F700C000000197C1F78A
:1005000020913A0130913B012F5031094CED55E0DB
:10051000249FC001259F900D349F900D112464E10C
:1005200070E00E94E10980E090E00E94B5060E9420
:1005300093070E948606EB0144EB64EB88E291E0AE
:100540000E944C0480E090E08C179D0741F0EFEC96
:10055000F7E03197F1F700C000000196F5CF40E0D9
:1005600060E088E291E00E944C0488EE93E0EFECBA
:10057000F7E03197F1F700C000000197C1F746E9B5
:1005800060E088E291E00E944C0482E593E0EFECA9
:10059000F7E03197F1F700C000000197C1F740E0A4
:1005A00060E088E291E00E944C048CEB92E0EFEC7A
:1005B000F7E03197F1F700C000000197C1F783E041
:1005C000809326017894DF91CF910895CF93DF93A4
:1005D000F8948FE291E00E94D60340E060E088E268
:1005E00091E00E944C0488EE93E0EFECF7E0319745
:1005F000F1F700C000000197C1F744EB60E088E22A
:1006000091E00E944C0482E593E0EFECF7E0319733
:10061000F1F700C000000197C1F740E060E088E218
:1006200091E00E944C0484E893E0EFECF7E031970E
:10063000F1F700C000000197C1F720913C01309113
:100640003D012A50310948EE53E0249FC001259F07
:10065000900D349F900D112464E170E00E94E10937
:1006600080E090E00E94B5060E9493070E948606F3
:10067000EB0144EB64EB88E291E00E944C0480E0E3
:1006800090E08C179D0741F0EFECF7E03197F1F720
:1006900000C000000196F5CF40E060E088E291E004
:1006A0000E944C0488EE93E0EFECF7E03197F1F70D
:1006B00000C000000197C1F740E066E988E291E0E0
:1006C0000E944C0488E592E0EFECF7E03197F1F7F7
:1006D00000C000000197C1F740E060E088E291E0CF
:1006E0000E944C048CEB92E0EFECF7E03197F1F7CD
:1006F00000C000000197C1F781E080932601789443
:10070000DF91CF91089510927C0086E880937A0063
:10071000089510927A00089580917C00807E8093E5
:100720007C0080917C006770682B60937C008091D6
:100730007A00806480937A0080917A0084FFFCCFF5
:1007400080917A00806180937A0020917800809176
:10075000790090E0982F8827820F911D089522E458
:10076000FC0120830895FC016F7D613431F0623417
:1007700021F0633411F0643409F46083089508951E
:10078000FC018081813411F482E082B9808182345D
:1007900011F482E085B98081833411F482E082B95A
:1007A0008081843411F482E085B90895FC01808150
:1007B000813411F481E082B98081823411F481E0C6
:1007C00085B98081833411F481E082B980818434D9
:1007D00011F481E085B90895FC018081813411F420
:1007E00081E082B98FE19EE40197F1F700C000003B
:1007F00082E082B98FE99FE00197F1F700C0000025
:100800008081823411F481E085B98FE19EE4019703
:10081000F1F700C0000082E085B98FE99FE0019701
:10082000F1F700C000008081833411F481E088B9C1
:100830008FE19EE40197F1F700C0000082E088B9E3
:100840008FE99FE00197F1F700C0000080818434B8
:1008500011F481E08BB98FE19EE40197F1F700C0BC
:10086000000082E08BB98FE99FE00197F1F700C0AB
:1008700000000895FC018081813409F412B8808160
:10088000823409F415B88081833409F412B8808168
:10089000843409F415B8089570E07093890060936A
:1008A000880050E050938B0040938A00E0E8F0E02D
:1008B0008081816A8083E1E8F0E0808182608083CA
:1008C00010928200089570E0709389006093880010
:1008D000E0E8F0E08081816A8083E1E8F0E08081F7
:1008E0008260808310928200089570E070938B0084
:1008F00060938A00E0E8F0E08081816A8083E1E82B
:10090000F0E08081826080831092820008952BB194
:100910002F6B2BB90C9463042BB12F672BB90C945C
:1009200075042BB120742BB90C9463042BB120787F
:100930002BB90C947504CF93DF93EC0160E00E9417
:10094000630460E0CE01DF91CF910C9475040895AB
:10095000089584B5826484BD67BD85B5846085BD16
:1009600008958FEF84B908952FEF24B923ED260F52
:10097000253238F4E62FF0E0EC52FF4F60810C9402
:10098000A904089514BC0895DF92EF92FF920F938B
:100990001F93CF93DF93EC0184E1D82E00E010E0A9
:1009A000E12CF12C60E0CE010E948C039B838A83B2
:1009B00061E0CE010E948C039D838C832A813B8160
:1009C000E20EF31E080F191FDA94D110EBCF24E1C9
:1009D00030E0C701B9010E94E1097B836A83C80145
:1009E000B9010E94E1097D836C83DF91CF911F9152
:1009F0000F91FF90EF90DF900895F89411B87894DC
:100A00000895FC01828193810895FC018481958180
:100A100008951092B2006093B300E0EBF0E08081A3
:100A200082608083E1EBF0E0808187608083E0E793
:100A3000F0E080818260808308958FEF84B911B8DF
:100A40008AB989E291E00E94FD0468EC70E089E2D5
:100A500091E00E940905C4E011E0D2E003E080913A
:100A600026018230C1F128F4882351F08130F9F059
:100A7000F6CF833009F464C0843009F46CC0EFCF42
:100A800020913C0130913D0180913A0190913B01D0
:100A900028173907E8F020913A0130913B01809105
:100AA0003C0190913D0128173907C8F651C00E94BA
:100AB000F3000E94D6012FEF84E39CE02150804098
:100AC0009040E1F700C000000E9418018823E1F087
:100AD000D0932601C4CF0E94F3000E94D6018091DA
:100AE0003901811111C080913A0190913B014997E0
:100AF00008F46BC080913A0190913B01CD9708F0CA
:100B000064C00E944902ABCF80913901882309F467
:100B1000A6CF80913801882309F4A1CF40EA64E68A
:100B200088E291E00E944C042FEF89E698E1215081
:100B300080409040E1F700C000000E940F028FCF7C
:100B40000E94F3000E940F020E942B01882309F1EA
:100B5000C093260184CF0E94F3000E940F022FEF62
:100B600084E39CE0215080409040E1F700C0000009
:100B70008091380181110DC080913C0190913D011F
:100B8000499730F180913C0190913D01CD9718F14A
:100B90001FC080913901882309F461CF8091380109
:100BA000882309F45CCF44E660EA88E291E00E9481
:100BB0004C042FEF89E698E1215080409040E1F706
:100BC00000C000000E94D6014ACF0093260147CF03
:100BD0001093260144CF0E94E60241CF8FE291E0BC
:100BE0000E94AF0389E291E00E9483038AE291E0D0
:100BF0000E94AF03E9E2F1E01382128215821482AF
:100C000087E291E00C94A70487E291E00E94A80497
:100C10008AE291E00E94BF0389E291E00E94890389
:100C20008FE291E00C94BF030E9428060C94090700
:100C30000E94020758F00E94FB0640F029F45F3F33
:100C400029F00C94F20651110C943D070C94F8060F
:100C50000E941A0768F39923B1F3552391F3951B6A
:100C6000550BBB27AA2762177307840738F09F5FCD
:100C70005F4F220F331F441FAA1FA9F335D00E2E3A
:100C80003AF0E0E832D091505040E695001CCAF7A7
:100C90002BD0FE2F29D0660F771F881FBB1F26176A
:100CA00037074807AB07B0E809F0BB0B802DBF0141
:100CB000FF2793585F4F3AF09E3F510578F00C9410
:100CC000F2060C943D075F3FE4F3983ED4F386951B
:100CD00077956795B795F7959F5FC9F7880F911D31
:100CE0009695879597F90895E1E0660F771F881F1D
:100CF000BB1F621773078407BA0720F0621B730BD0
:100D0000840BBA0BEE1F88F7E09508950E94220726
:100D100088F09F5798F0B92F9927B751B0F0E1F0BC
:100D2000660F771F881F991F1AF0BA95C9F714C06C
:100D3000B13091F00E943C07B1E008950C943C075B
:100D4000672F782F8827B85F39F0B93FCCF38695A5
:100D500077956795B395D9F73EF490958095709502
:100D600061957F4F8F4F9F4F0895E89409C097FB7F
:100D70003EF490958095709561957F4F8F4F9F4F72
:100D80009923A9F0F92F96E9BB279395F6958795B6
:100D900077956795B795F111F8CFFAF4BB0F11F479
:100DA00060FF1BC06F5F7F4F8F4F9F4F16C0882320
:100DB00011F096E911C0772321F09EE8872F762F56
:100DC00005C0662371F096E8862F70E060E02AF097
:100DD0009A95660F771F881FDAF7880F9695879583
:100DE00097F9089597F99F6780E870E060E00895AB
:100DF0009FEF80EC089500240A9416161706180633
:100E00000906089500240A9412161306140605060E
:100E10000895092E0394000C11F4882352F0BB0F9F
:100E200040F4BF2B11F460FF04C06F5F7F4F8F4F02
:100E30009F4F089557FD9058440F551F59F05F3F3D
:100E400071F04795880F97FB991F61F09F3F79F0EC
:100E500087950895121613061406551FF2CF46956E
:100E6000F1DF08C0161617061806991FF1CF8695F0
:100E70007105610508940895E894BB2766277727D4
:100E8000CB0197F90895FA01EE0FFF1F3096210567
:100E90003105A1F16115710561F48038BFE39B074D
:100EA00049F168949038810561F08038BFEF9B0765
:100EB00041F099234AF5FF3FE1053105210519F17C
:100EC000E8940894E795D901AA2329F4AB2FBE2F03
:100ED000F85FD0F310C0FF5F70F4A695E0F7F73924
:100EE00050F019F0FF3A38F49F779F930DD00F9090
:100EF00007FC9058089546F00C94F80660E070E006
:100F000080E89FE308954FE79F775F934F933F9368
:100F10002F930E948B082F913F914F915F910E94D8
:100F200007090C94BF070E942207E8F09E37E8F0FB
:100F30009639B8F49E3848F4672F782F8827985F41
:100F4000F9CF86957795679593959539D0F3B62F18
:100F5000B1706B0F711D811D20F487957795679592
:100F600093950C94F1070C940C080C943D0729F40C
:100F700016F00C94F2060C943C070C94F8060E94B0
:100F80002207A8F39638A0F707F80F92E8942BE30E
:100F90003AEA48EB5FE70E941D090F920F920F9209
:100FA0004DB75EB70F920E94D308ECE7F0E00E94C5
:100FB0001A084F915F91EF91FF91E595EE1FFF1F8A
:100FC00049F0FE57E0684427EE0F441FFA95E1F719
:100FD0004195550B0E944D080F9007FE0C94410857
:100FE0000895882371F4772321F09850872B762F6A
:100FF00007C0662311F499270DC09051862B70E02D
:1010000060E02AF09A95660F771F881FDAF7880F3D
:101010009695879597F908959F3F31F0915020F468
:10102000879577956795B795880F911D96958795C4
:1010300097F90895DF93CF931F930F93FF92EF9249
:10104000DF927B018C01689406C0DA2EEF010E94CA
:101050001A09FE01E894A591259135914591559184
:10106000A6F3EF010E948C09FE019701A801DA9412
:1010700069F7DF90EF90FF900F911F91CF91DF9173
:1010800008959B01AC0160E070E080E89FE30C9460
:1010900014060C94F2060C940C080E942207D8F354
:1010A0009923C9F3940F511DA3F39150504094F02C
:1010B00059F0882332F0660F771F881F91505040F7
:1010C000C1F79E3F51052CF7880F911D9695879586
:1010D00097F908955F3FACF0983E9CF0BB2786954A
:1010E00077956795B79508F4B1609395C1F7BB0FF5
:1010F00058F711F460FFE8CF6F5F7F4F8F4F9F4F1E
:10110000E3CF0C943D0716F00C940C080C94F806F1
:1011100068940C94F2060E942207A8F39923C1F365
:10112000AEF3DF93CF931F930F93FF92C92FDD2769
:1011300088232AF02197660F771F881FDAF720E0AF
:1011400030E040E85FEB9FE3883920F0803E38F0E4
:1011500021968F770E947509E4EAF0E004C00E94AE
:101160007509E1EDF0E00E941A088B01BE01EC0167
:10117000FB2E6F5771097595771F880B990B0E948D
:10118000B70628E132E741E35FE30E941A09AF2D79
:101190009801AE01FF900F911F91CF91DF910E94B6
:1011A0008C090C940907FA01DC01AA0FBB1F9B01F3
:1011B000AC01BF5728F4222733274427507820C09A
:1011C000B75190F4AB2F0024469537952795011C15
:1011D000A395D2F3002071F0220F331F441FB39563
:1011E000DAF30ED00C94740961307105A0E88A0717
:1011F000B94630F49B01AC016627772788279078A1
:10120000309621F0208331834283538308950E94D6
:101210001A090C9409070E94FB0638F00E94020785
:1012200020F0952311F00C94F2060C94F80611248A
:101230000C943D070E941A0770F3959FC1F3950F18
:1012400050E0551F629FF001729FBB27F00DB11D4A
:10125000639FAA27F00DB11DAA1F649F6627B00DDA
:10126000A11D661F829F2227B00DA11D621F739FC3
:10127000B00DA11D621F839FA00D611D221F749FD1
:101280003327A00D611D231F849F600D211D822F18
:10129000762F6A2F11249F5750409AF0F1F088233F
:1012A0004AF0EE0FFF1FBB1F661F771F881F91506C
:1012B0005040A9F79E3F510580F00C94F2060C9423
:1012C0003D075F3FE4F3983ED4F3869577956795A5
:1012D000B795F795E7959F5FC1F7FE2B880F911D96
:1012E0009695879597F908955058BB27AA270E948D
:1012F0008C090C9409070E94FB0638F00E94020733
:1013000020F039F49F3F19F426F40C94F8060EF4FB
:10131000E095E7FB0C94F206E92F0E941A0758F3B8
:10132000BA17620773078407950720F079F4A6F5CA
:101330000C943C070EF4E0950B2EBA2FA02D0B0158
:10134000B90190010C01CA01A0011124FF27591B0A
:1013500099F0593F50F4503E68F11A16F040A22F10
:10136000232F342F4427585FF3CF46953795279581
:10137000A795F0405395C9F77EF41F16BA0B620B80
:10138000730B840BBAF09150A1F0FF0FBB1F661FC7
:10139000771F881FC2F70EC0BA0F621F731F841F0A
:1013A00048F4879577956795B795F7959E3F08F030
:1013B000B0CF9395880F08F09927EE0F97958795F2
:1013C0000895AA1BBB1B51E107C0AA1FBB1FA6178C
:1013D000B70710F0A61BB70B881F991F5A95A9F7DE
:1013E00080959095BC01CD010895EE0FFF1F0590EB
:1013F000F491E02D099410E0C0E8D0E004C0FE01B3
:101400000E94F5092196C138D107C9F7F894FFCF9A
:10141000018E867E77706A645E59544F4B47433F16
:101420003B3835322F2C2A272523211F1D1C1A1942
:061430001716151312113E
:00000001FF
