:100000000C9481000C94B8000C94A9000C94A900E5
:100010000C94A9000C94A9000C94A9000C94A900BC
:100020000C94A9000C942E010C94A9000C94A90026
:100030000C94A9000C94A9000C94A9000C94A9009C
:100040000C94A9000C94A9000C94A9000C94A9008C
:100050000C94A9000C94A9000C94A9000C94A9007C
:100060000C94A9000C94A9000C94A9000C94A9006C
:100070000C94A9000C94A9000C94A90007634236C3
:10008000B79BD8A71A39685618AEBAAB558C1D3C29
:10009000B7CC5763BD6DEDFD753EF6177231BF00ED
:1000A0000000803F08000000BE922449123EABAA27
:1000B000AA2ABECDCCCC4C3E00000080BEABAAAA82
:1000C000AA3E00000000BF000000803F00000000CA
:1000D00000084178D3BB4387D1133D190E3CC3BD03
:1000E0004282AD2B3E68EC8276BED98FE1A93E4CB0
:1000F00080EFFFBE01C4FF7F3F0000000000E2046C
:10010000F80411241FBECFEFD8E0DEBFCDBF11E051
:10011000A0E0B1E0E2E2F2E102C005900D92A63269
:10012000B107D9F721E0A6E2B1E001C01D92AE33DC
:10013000B207E1F710E0C0E8D0E004C02197FE016B
:100140000E94FE08CF37D107C9F70E9440040C94E3
:1001500004090C940000F8945298E89AE9E6F0E05B
:1001600080818E7F808380818260808378940895EF
:100170001F920F920FB60F9211242F933F934F931C
:100180005F936F937F938F939F93AF93BF93EF93FF
:10019000FF938FE59AEE0197F1F700C00000809180
:1001A0003101873679F440E06FEF87E291E00E94F9
:1001B000B4039FEF2BE48DE1915020408040E1F7A4
:1001C00000C0000080913101843679F44FEF60E087
:1001D00087E291E00E94B4039FEF2BE48DE1915000
:1001E00020408040E1F700C0000048EC68EC87E266
:1001F00091E00E94B4039FE728E381E09150204002
:100200008040E1F700C00000E09AFF91EF91BF91BC
:10021000AF919F918F917F916F915F914F913F919E
:100220002F910F900FBE0F901F901895F89411B852
:10023000789408951092B2008093B300E0EBF0E060
:10024000808182608083E1EBF0E080818760808341
:10025000E0E7F0E080818260808308951F920F9232
:100260000FB60F9211242F933F934F935F936F9389
:100270007F938F939F93AF93BF93EF93FF9388E206
:1002800091E00E94270488E291E00E942704609197
:100290003C0170913D0180E090E00E94AE0526E6B1
:1002A00036E647ED53E40E94080587FF04C010922C
:1002B00039011092380160913A0170913B0180E060
:1002C00090E00E94AE0526E636E647ED53E40E9434
:1002D000080587FF04C0109237011092360188E2AA
:1002E00091E00E94380490933D0180933C0160911D
:1002F0003C0170913D0180E090E00E94AE059B01C1
:10030000AC0166E67EED82E895E40E940D0528E6E4
:1003100031E94DE85FE30E9460060E94B0060E944A
:100320007F05709339016093380188E291E00E9463
:100330003C0490933B0180933A0160913A017091A3
:100340003B0180E090E00E94AE059B01AC0166E6B7
:100350007EED82E895E40E940D0528E631E94DE83E
:100360005FE30E9460060E94B0060E947F057093C2
:100370003701609336018091360190913701CD9716
:1003800028F081E08093350180933301809138011A
:1003900090913901CD9728F081E0809334018093CA
:1003A00032018091360190913701CD9710F410926F
:1003B00035018091380190913901CD9710F4109258
:1003C0003401FF91EF91BF91AF919F918F917F91F8
:1003D0006F915F914F913F912F910F900FBE0F90B2
:1003E0001F9018958091360190913701CD9718F4A0
:1003F00080913301089580E00895809138019091B3
:100400003901CD9718F480913201089580E0089564
:1004100066E486E291E00E9417042FEF81EE94E0FB
:10042000215080409040E1F700C0000086E291E05A
:100430000E9425042FEF80E792E0215080409040F9
:10044000E1F700C000006BE486E291E00E9417042F
:100450002FEF81EE94E0215080409040E1F700C002
:10046000000086E291E00E9425042FEF80E792E0F1
:10047000215080409040E1F700C0000060E586E236
:1004800091E00E9417042FEF81EE94E0215080400C
:100490009040E1F700C0000086E291E00C94250452
:1004A0008091350181110EC02FEF84E39CE0215033
:1004B00080409040E1F700C000008091350181113B
:1004C0000E9408028091340181110EC02FEF84E355
:1004D0009CE0215080409040E1F700C000008091F6
:1004E000340181110C94080208950E94F201809356
:1004F00031018823A1F18EE291E00E94280340E0BF
:1005000064EB87E291E00E94B4032FEF84E39CE068
:10051000215080409040E1F700C000004CE86CE8BA
:1005200087E291E00E94B4032FEF84E39CE0215026
:1005300080409040E1F700C0000044EB60E087E2BB
:1005400091E00E94B4032FEF84E39CE021508040AF
:100550009040E1F700C0000084E6809331010E94E2
:10056000FD01809331018823A1F18EE291E00E9488
:10057000280344EB60E087E291E00E94B4032FEF90
:1005800084E39CE0215080409040E1F700C00000EF
:100590004CE86CE887E291E00E94B4032FEF89E613
:1005A00098E1215080409040E1F700C0000040E019
:1005B00064EB87E291E00E94B4032FEF84E39CE0B8
:1005C000215080409040E1F700C0000087E6809312
:1005D0003101089510927C0086E880937A00089596
:1005E00010927A00089580917C00807E80937C0038
:1005F00080917C006770682B60937C0080917A000A
:10060000806480937A0080917A0084FFFCCF80918F
:100610007A00806180937A0020917800809179003F
:1006200090E0982F8827820F911D089522E4FC0105
:1006300020830895FC016F7D613411F4608306C04E
:100640006234E1F36334D1F36434C1F3089508955F
:10065000FC018081813411F482E082B9808182348E
:1006600011F482E085B98081833411F482E082B98B
:100670008081843411F482E085B90895FC01808181
:10068000813411F481E082B98081823411F481E0F7
:1006900085B98081833411F481E082B9808184340A
:1006A00011F481E085B90895FC018081813411F451
:1006B00081E082B98FE19EE40197F1F700C000006C
:1006C00082E082B98FE99FE00197F1F700C0000056
:1006D0008081823411F481E085B98FE19EE4019735
:1006E000F1F700C0000082E085B98FE99FE0019733
:1006F000F1F700C000008081833411F481E088B9F3
:100700008FE19EE40197F1F700C0000082E088B914
:100710008FE99FE00197F1F700C0000080818434E9
:1007200011F481E08BB98FE19EE40197F1F700C0ED
:10073000000082E08BB98FE99FE00197F1F700C0DC
:1007400000000895FC018081813409F412B8808191
:10075000823409F415B88081833409F412B8808199
:10076000843409F415B8089570E07093890060939B
:10077000880050E050938B0040938A00E0E8F0E05E
:100780008081816A8083E1E8F0E0808182608083FB
:100790001092820008959C01962F642F9F7D9734BC
:1007A00031F440E0C9010E94B4035E9A0895943484
:1007B00029F460E0C9010E94B4035F9A08959C0186
:1007C000962F642F5E985F989F7D973421F440E0C8
:1007D000C9010C94B403943411F460E0F9CF089586
:1007E00040E060E00C94B40370E070938900609383
:1007F000880070938B0060938A00E0E8F0E08081CD
:10080000816A8083E1E8F0E08081826080831092D9
:10081000820008950895089584B5826484BD67BDFB
:1008200085B5846085BD08958FEF84B908952FEF55
:1008300024B923ED260F253238F4E62FF0E0EC52F0
:10084000FF4F60810C940C04089514BC0895CF935D
:10085000DF93EC0160E00E94F3029A83898361E0F8
:10086000CE010E94F3029C838B83DF91CF91089588
:10087000FC01818192810895FC0183819481089516
:100880008FEF84B911B88AB90E94AB000E9416019B
:1008900088EC90E00E941A0148E768E787E291E05F
:1008A0000E94B403C7E6D4E6809131018736C1F5D2
:1008B0000E94500280913801909139010D9738F0D3
:1008C0008091380190913901429708F465C0809178
:1008D0003801909139010D9750F48EE291E00E9419
:1008E00028034AE568E787E291E00E94B40380911B
:1008F000380190913901429750F08EE291E00E94C8
:10090000280348E76AE587E291E00E94B4030E9469
:10091000F201882349F20E947502D0933101C4CFBD
:1009200080913101843609F0BFCF0E94500280913E
:100930003601909137010D9730F0809136019091FA
:1009400037014297A0F180913601909137010D97C0
:1009500050F48EE291E00E94280348E76AE587E2BE
:1009600091E00E94B4038091360190913701429743
:1009700050F08EE291E00E9428034AE568E787E2A2
:1009800091E00E94B4030E94FD01882349F20E9475
:100990007502C0933101C4CF8EE291E00E943E0304
:1009A00048E768E787E291E00E94B40390CF8EE2C7
:1009B00091E00E943E0348E768E787E291E00E94E9
:1009C000B403C1CF8EE291E00E94160388E291E069
:1009D0000E94EA0289E291E00E941603E8E2F1E057
:1009E000138212821582148286E291E00C940A042A
:1009F00086E291E00E940B0489E291E00E942703C5
:100A000088E291E00E94F0028EE291E00C942703CC
:100A10000E94EB0508F481E008950E9421050C94E2
:100A200026060E941F0658F00E94180640F029F47E
:100A30005F3F29F00C940F0651110C945A060C9448
:100A400015060E94370668F39923B1F3552391F3F5
:100A5000951B550BBB27AA2762177307840738F02D
:100A60009F5F5F4F220F331F441FAA1FA9F335D08A
:100A70000E2E3AF0E0E832D091505040E695001C3E
:100A8000CAF72BD0FE2F29D0660F771F881FBB1FF8
:100A9000261737074807AB07B0E809F0BB0B802DD6
:100AA000BF01FF2793585F4F3AF09E3F510578F002
:100AB0000C940F060C945A065F3FE4F3983ED4F36F
:100AC000869577956795B795F7959F5FC9F7880FD6
:100AD000911D9695879597F90895E1E0660F771F28
:100AE000881FBB1F621773078407BA0720F0621BB9
:100AF000730B840BBA0BEE1F88F7E09508950E94E4
:100B00003F0688F09F5798F0B92F9927B751B0F05A
:100B1000E1F0660F771F881F991F1AF0BA95C9F781
:100B200014C0B13091F00E945906B1E008950C94C0
:100B30005906672F782F8827B85F39F0B93FCCF373
:100B4000869577956795B395D9F73EF490958095FE
:100B5000709561957F4F8F4F9F4F0895E89409C01E
:100B600097FB3EF490958095709561957F4F8F4FE0
:100B70009F4F9923A9F0F92F96E9BB279395F695F6
:100B8000879577956795B795F111F8CFFAF4BB0F74
:100B900011F460FF1BC06F5F7F4F8F4F9F4F16C0D8
:100BA000882311F096E911C0772321F09EE8872F62
:100BB000762F05C0662371F096E8862F70E060E01E
:100BC0002AF09A95660F771F881FDAF7880F969597
:100BD000879597F90895990F0008550FAA0BE0E83B
:100BE000FEEF16161706E807F907C0F012161306EF
:100BF000E407F50798F0621B730B840B950B39F42F
:100C00000A2661F0232B242B252B21F408950A2694
:100C100009F4A140A6958FEF811D811D089597F9D4
:100C20009F6780E870E060E008959FEF80EC089592
:100C300000240A94161617061806090608950024BB
:100C40000A9412161306140605060895092E039435
:100C5000000C11F4882352F0BB0F40F4BF2B11F4A9
:100C600060FF04C06F5F7F4F8F4F9F4F089557FD08
:100C70009058440F551F59F05F3F71F04795880F0A
:100C800097FB991F61F09F3F79F0879508951216A1
:100C900013061406551FF2CF4695F1DF08C016164D
:100CA00017061806991FF1CF8695710561050894FE
:100CB0000895E894BB2766277727CB0197F9089515
:100CC000FA01EE0FFF1F309621053105A1F16115E4
:100CD000710561F48038BFE39B0749F1689490384F
:100CE000810561F08038BFEF9B0741F099234AF5F9
:100CF000FF3FE1053105210519F1E8940894E795D6
:100D0000D901AA2329F4AB2FBE2FF85FD0F310C06E
:100D1000FF5F70F4A695E0F7F73950F019F0FF3A4D
:100D200038F49F779F930DD00F9007FC905808954B
:100D300046F00C94150660E070E080E89FE30895AB
:100D40004FE79F775F934F933F932F930E94A8079E
:100D50002F913F914F915F910E9424080C94DC06E3
:100D60000E943F06E8F09E37E8F09639B8F49E38C6
:100D700048F4672F782F8827985FF9CF8695779565
:100D8000679593959539D0F3B62FB1706B0F711DA0
:100D9000811D20F487957795679593950C940E07A0
:100DA0000C9429070C945A0629F416F00C940F069B
:100DB0000C9459060C9415060E943F06A8F3963829
:100DC000A0F707F80F92E8942BE33AEA48EB5FE7C5
:100DD0000E943A080F920F920F924DB75EB70F9292
:100DE0000E94F007ECE7F0E00E9437074F915F9117
:100DF000EF91FF91E595EE1FFF1F49F0FE57E06868
:100E00004427EE0F441FFA95E1F74195550B0E94D8
:100E10006A070F9007FE0C945E070895882371F40B
:100E2000772321F09850872B762F07C0662311F483
:100E300099270DC09051862B70E060E02AF09A95BA
:100E4000660F771F881FDAF7880F9695879597F9B1
:100E500008959F3F31F0915020F4879577956795DD
:100E6000B795880F911D9695879597F90895DF930B
:100E7000CF931F930F93FF92EF92DF927B018C0130
:100E8000689406C0DA2EEF010E943708FE01E8944C
:100E9000A5912591359145915591A6F3EF010E94B9
:100EA000A908FE019701A801DA9469F7DF90EF9095
:100EB000FF900F911F91CF91DF9108959B01AC019D
:100EC00060E070E080E89FE30C940D050C940F0641
:100ED0000C9429070E943F06D8F39923C9F3940F75
:100EE000511DA3F39150504094F059F0882332F0F3
:100EF000660F771F881F91505040C1F79E3F5105E4
:100F00002CF7880F911D9695879597F908955F3F67
:100F1000ACF0983E9CF0BB27869577956795B79582
:100F200008F4B1609395C1F7BB0F58F711F460FF57
:100F3000E8CF6F5F7F4F8F4F9F4FE3CF0C945A06E0
:100F400016F00C9429070C94150668940C940F065F
:100F50000E943F06A8F39923C1F3AEF3DF93CF932A
:100F60001F930F93FF92C92FDD2788232AF0219723
:100F7000660F771F881FDAF720E030E040E85FEB6C
:100F80009FE3883920F0803E38F021968F770E94C9
:100F90009208E4EAF0E004C00E949208E1EDF0E07B
:100FA0000E9437078B01BE01EC01FB2E6F577109C0
:100FB0007595771F880B990B0E94B00528E132E7E1
:100FC00041E35FE30E943708AF2D9801AE01FF9027
:100FD0000F911F91CF91DF910E94A9080C942606D2
:100FE000FA01DC01AA0FBB1F9B01AC01BF5728F41B
:100FF000222733274427507820C0B75190F4AB2FD5
:101000000024469537952795011CA395D2F300201F
:1010100071F0220F331F441FB395DAF30ED00C94F6
:10102000910861307105A0E88A07B94630F49B0148
:10103000AC016627772788279078309621F02083A7
:1010400031834283538308950E9437080C94260607
:101050000E94180638F00E941F0620F0952311F018
:101060000C940F060C94150611240C945A060E9439
:10107000370670F3959FC1F3950F50E0551F629F9F
:10108000F001729FBB27F00DB11D639FAA27F00DE1
:10109000B11DAA1F649F6627B00DA11D661F829F08
:1010A0002227B00DA11D621F739FB00DA11D621FED
:1010B000839FA00D611D221F749F3327A00D611D0A
:1010C000231F849F600D211D822F762F6A2F1124EC
:1010D0009F5750409AF0F1F088234AF0EE0FFF1F1F
:1010E000BB1F661F771F881F91505040A9F79E3F76
:1010F000510580F00C940F060C945A065F3FE4F300
:10110000983ED4F3869577956795B795F795E795CB
:101110009F5FC1F7FE2B880F911D9695879597F9D4
:1011200008955058BB27AA270E94A9080C942606A8
:101130000E94180638F00E941F0620F039F49F3FE5
:1011400019F426F40C9415060EF4E095E7FB0C94C4
:101150000F06E92F0E94370658F3BA176207730784
:101160008407950720F079F4A6F50C9459060EF43F
:10117000E0950B2EBA2FA02D0B01B90190010C01A7
:10118000CA01A0011124FF27591B99F0593F50F4BF
:10119000503E68F11A16F040A22F232F342F442717
:1011A000585FF3CF469537952795A795F04053950F
:1011B000C9F77EF41F16BA0B620B730B840BBAF0DF
:1011C0009150A1F0FF0FBB1F661F771F881FC2F74A
:1011D0000EC0BA0F621F731F841F48F4879577955E
:1011E0006795B795F7959E3F08F0B0CF9395880F18
:1011F00008F09927EE0F979587950895EE0FFF1F3A
:101200000590F491E02D099410E0C0E8D0E004C00E
:10121000FE010E94FE082196C138D107C9F7F89453
:02122000FFCFFE
:10122200018E867E77706A645E59544F4B47433F06
:101232003B3835322F2C2A272523211F1D1C1A1932
:061242001716151312112E
:00000001FF
