:100000000C9481000C94B8000C94A9000C94A900E5
:100010000C94A9000C94A9000C94A9000C94A900BC
:100020000C94A9000C942E010C94A9000C94A90026
:100030000C94A9000C94A9000C94A9000C94A9009C
:100040000C94A9000C94A9000C94A9000C94A9008C
:100050000C94A9000C94A9000C94A9000C94A9007C
:100060000C94A9000C94A9000C94A9000C94A9006C
:100070000C94A9000C94A9000C94A90007634236C3
:10008000B79BD8A71A39685618AEBAAB558C1D3C29
:10009000B7CC5763BD6DEDFD753EF6177231BF00ED
:1000A0000000803F08000000BE922449123EABAA27
:1000B000AA2ABECDCCCC4C3E00000080BEABAAAA82
:1000C000AA3E00000000BF000000803F00000000CA
:1000D00000084178D3BB4387D1133D190E3CC3BD03
:1000E0004282AD2B3E68EC8276BED98FE1A93E4CB0
:1000F00080EFFFBE01C4FF7F3F00000000008105CC
:10010000970511241FBECFEFD8E0DEBFCDBF11E0B1
:10011000A0E0B1E0E8E7F3E102C005900D92A6325D
:10012000B107D9F721E0A6E2B1E001C01D92AE33DC
:10013000B207E1F710E0C0E8D0E004C02197FE016B
:100140000E94A909CF37D107C9F70E94D3030C94A5
:10015000AF090C940000F8945298E89AE9E6F0E0B0
:1001600080818E7F808380818260808378940895EF
:100170001F920F920FB60F9211242F933F934F931C
:100180005F936F937F938F939F93AF93BF93EF93FF
:10019000FF938FE59AEE0197F1F700C00000809180
:1001A0003101873679F440E06FEF87E291E00E94F9
:1001B0005D039FEF2CEB8FE1915020408040E1F7F1
:1001C00000C0000080913101843679F44FEF60E087
:1001D00087E291E00E945D039FEF2CEB8FE191504D
:1001E00020408040E1F700C0000048EC68EC87E266
:1001F00091E00E945D039FE728E381E09150204059
:100200008040E1F700C00000E09AFF91EF91BF91BC
:10021000AF919F918F917F916F915F914F913F919E
:100220002F910F900FBE0F901F901895F89411B852
:10023000789408951092B2008093B300E0EBF0E060
:10024000808182608083E1EBF0E080818760808341
:10025000E0E7F0E080818260808308951F920F9232
:100260000FB60F9211242F933F934F935F936F9389
:100270007F938F939F93AF93BF93EF93FF9388E206
:1002800091E00E94BA0360913C0170913D0180E0D1
:1002900090E00E944D0626E636E647ED53E40E94C4
:1002A000A70587FF04C010923901109238016091B0
:1002B0003A0170913B0180E090E00E944D0626E6F5
:1002C00036E647ED53E40E94A70587FF04C010926D
:1002D00037011092360188E291E00E94CB0390939F
:1002E0003D0180933C0160913C0170913D0180E0B3
:1002F00090E00E944D069B01AC0166E67EED82E82F
:1003000095E40E94AC0528E631E94DE85FE30E94E0
:10031000FF060E944F070E941E06709339016093EA
:10032000380188E291E00E94CF0390933B018093D3
:100330003A0160913A0170913B0180E090E00E94A7
:100340004D069B01AC0166E67EED82E895E40E94D5
:10035000AC0528E631E94DE85FE30E94FF060E9404
:100360004F070E941E0670933701609336018091FB
:10037000360190913701CD9728F081E080933501C7
:10038000809333018091380190913901CD9728F005
:1003900081E0809334018093320180913601909105
:1003A0003701CD9710F4109235018091380190916A
:1003B0003901CD9710F41092340180910001882307
:1003C000F1F02091380130913901809136019091FE
:1003D00037012817390718F487E6809331012091F7
:1003E00036013091370180913801909139012817F9
:1003F000390718F484E68093310110920001FF91CF
:10040000EF91BF91AF919F918F917F916F915F918C
:100410004F913F912F910F900FBE0F901F90189505
:100420008091360190913701CD9718F48091330176
:10043000089580E008958091380190913901CD9719
:1004400018F480913201089580E0089566E486E210
:1004500091E00E94AA032FEF81EE94E021508040AA
:100460009040E1F700C0000086E291E00E94B803EE
:100470002FEF80E792E0215080409040E1F700C0EC
:1004800000006BE486E291E00E94AA032FEF81EE68
:1004900094E0215080409040E1F700C0000086E2E7
:1004A00091E00E94B8032FEF80E792E02150804056
:1004B0009040E1F700C0000060E586E291E00E9414
:1004C000AA032FEF81EE94E0215080409040E1F7A5
:1004D00000C0000086E291E00C94B80380913501E1
:1004E00081110EC02FEF87E893E1215080409040AA
:1004F000E1F700C000008091350181110E942602C1
:100500008091340181110EC02FEF87E893E12150D3
:1005100080409040E1F700C00000809134018111DB
:100520000C942602089510927C0086E880937A004D
:10053000089510927A00089580917C00807E8093C7
:100540007C0080917C006770682B60937C008091B8
:100550007A00806480937A0080917A0084FFFCCFD7
:1005600080917A00806180937A0020917800809158
:10057000790090E0982F8827820F911D089522E43A
:10058000FC0120830895FC016F7D613411F46083C8
:1005900006C06234E1F36334D1F36434C1F30895E7
:1005A0000895FC018081813411F482E082B9808158
:1005B000823411F482E085B98081833411F482E0C1
:1005C00082B98081843411F482E085B90895FC01F8
:1005D0008081813411F481E082B98081823411F408
:1005E00081E085B98081833411F481E082B9808112
:1005F000843411F481E085B90895FC01808181344F
:1006000011F481E082B98FE19EE40197F1F700C017
:10061000000082E082B98FE99FE00197F1F700C006
:1006200000008081823411F481E085B98FE19EE47D
:100630000197F1F700C0000082E085B98FE99FE0E3
:100640000197F1F700C000008081833411F481E04C
:1006500088B98FE19EE40197F1F700C0000082E0C5
:1006600088B98FE99FE00197F1F700C00000808111
:10067000843411F481E08BB98FE19EE40197F1F7A6
:1006800000C0000082E08BB98FE99FE00197F1F78D
:1006900000C000000895FC018081813409F412B883
:1006A0008081823409F415B88081833409F412B84A
:1006B0008081843409F415B8089570E0709389003E
:1006C0006093880050E050938B0040938A00E0E8EC
:1006D000F0E08081816A8083E1E8F0E080818260DF
:1006E00080831092820008959C01962F642F9F7D35
:1006F000973431F440E0C9010E945D035E9A089589
:10070000943429F460E0C9010E945D035F9A089562
:100710009C01962F642F5E985F989F7D973421F4FB
:1007200040E0C9010C945D03943411F460E0F9CF0A
:10073000089540E060E00C945D030895089584B549
:10074000826484BD67BD85B5846085BD08958FEFE3
:1007500084B908952FEF24B923ED260F253238F4FC
:10076000E62FF0E0EC52FF4F60810C949F03089558
:1007700014BC0895CF93DF93EC0160E00E949C02CB
:100780009B838A8361E0CE010E949C029D838C83BF
:10079000DF91CF910895FC01828193810895FC013E
:1007A0008481958108958FEF84B911B88AB98EE25A
:1007B00091E00E94E7022FEF81EE94E0215080400B
:1007C0009040E1F700C000008EE291E00E94D1026B
:1007D000EFEFF1EE24E0E150F0402040E1F700C0FF
:1007E00000000E94AB000E94160188EC90E00E947D
:1007F0001A0148E768E787E291E00E945D031FE085
:1008000007E684E6F82E80913101873609F0D2C0E0
:100810000E946E0280913801909139010D9738F055
:100820008091380190913901429708F43EC180913E
:100830003801909139010D9750F48EE291E00E94B9
:10084000D10248E767E887E291E00E945D0380916A
:10085000380190913901429738F080913801909198
:1008600039014A9708F42CC18091380190913901DF
:100870004A9708F451C08FEF97E8E3E18150904028
:10088000E040E1F700C0000080913801909139010B
:100890004A9708F441C08EE291E00E94D1024FEFE6
:1008A00060E087E291E00E945D03FFEF23EC89E0C6
:1008B000F15020408040E1F700C00000C0913801B5
:1008C000D091390144EB64EB87E291E00E945D0333
:1008D0008C2F8F50612F0E949D0990E0282F30E0CF
:1008E000492F50E04217530744F4EFECF7E03197FB
:1008F000F1F700C000009F5FF3CF40E06FEF87E2A9
:1009000091E00E945D03FFEF23EC89E0F15020406D
:100910008040E1F700C000000E9410028111F092B7
:10092000310180913501882309F46DCF8091340124
:10093000882309F468CF46E960E587E291E00E94E8
:100940005D039FEFEEE9F4E29150E040F040E1F703
:1009500000C000001092340156CF4FEF60E087E2F4
:1009600091E00E945D03FFEF23EC89E0F15020400D
:100970008040E1F700C000000E941B02811100933B
:100980003101809135018823A9F0809134018823B9
:1009900089F040E566E987E291E00E945D032FEF70
:1009A0008EE994E2215080409040E1F700C00000C1
:1009B0001092340180913101843609F024CF0E94D5
:1009C0006E0280913601909137010D9738F0809139
:1009D000360190913701429708F47DC0809136012D
:1009E000909137010D9750F48EE291E00E94D10270
:1009F00047E868E787E291E00E945D038091360155
:100A000090913701429738F08091360190913701EB
:100A10004A9708F46BC080913601909137014A974C
:100A200008F4AACF9FEFE7E8F3E19150E040F040EF
:100A3000E1F700C0000080913601909137014A979C
:100A400008F49ACF8EE291E00E94D10240E06FEF6D
:100A500087E291E00E945D032FEF83EC99E0215043
:100A600080409040E1F700C00000C0913601D09175
:100A7000370144EB64EB87E291E00E945D038C2F29
:100A80008F50612F0E949D0990E0282F30E0492F60
:100A900050E0421753070CF060CFEFECF7E03197CE
:100AA000F1F700C000009F5FF2CF8EE291E00E945C
:100AB000E70247E867E887E291E00E945D03B7CE6E
:100AC0008EE291E00E94D10247E868E787E291E078
:100AD0000E945D03C9CE8EE291E00E94E70247E8E2
:100AE00067E887E291E00E945D0378CF8EE291E0B3
:100AF0000E94D10248E767E887E291E00E945D0327
:100B00008ACF8EE291E00E94BF0288E291E00E94CB
:100B1000930289E291E00E94BF02E8E2F1E01382D1
:100B200012821582148286E291E00C949D0386E283
:100B300091E00E949E0389E291E00E94D00288E247
:100B400091E00E9499028EE291E00C94D0020E9402
:100B50008A0608F481E008950E94C0050C94C50639
:100B60000E94BE0658F00E94B70640F029F45F3F8D
:100B700029F00C94AE0651110C94F9060C94B406AD
:100B80000E94D60668F39923B1F3552391F3951B80
:100B9000550BBB27AA2762177307840738F09F5F9E
:100BA0005F4F220F331F441FAA1FA9F335D00E2E0B
:100BB0003AF0E0E832D091505040E695001CCAF778
:100BC0002BD0FE2F29D0660F771F881FBB1F26173B
:100BD00037074807AB07B0E809F0BB0B802DBF0112
:100BE000FF2793585F4F3AF09E3F510578F00C94E1
:100BF000AE060C94F9065F3FE4F3983ED4F3869575
:100C000077956795B795F7959F5FC9F7880F911D01
:100C10009695879597F90895E1E0660F771F881FED
:100C2000BB1F621773078407BA0720F0621B730BA0
:100C3000840BBA0BEE1F88F7E09508950E94DE063C
:100C400088F09F5798F0B92F9927B751B0F0E1F08D
:100C5000660F771F881F991F1AF0BA95C9F714C03D
:100C6000B13091F00E94F806B1E008950C94F806B6
:100C7000672F782F8827B85F39F0B93FCCF3869576
:100C800077956795B395D9F73EF4909580957095D3
:100C900061957F4F8F4F9F4F0895E89409C097FB50
:100CA0003EF490958095709561957F4F8F4F9F4F43
:100CB0009923A9F0F92F96E9BB279395F695879587
:100CC00077956795B795F111F8CFFAF4BB0F11F44A
:100CD00060FF1BC06F5F7F4F8F4F9F4F16C08823F1
:100CE00011F096E911C0772321F09EE8872F762F27
:100CF00005C0662371F096E8862F70E060E02AF068
:100D00009A95660F771F881FDAF7880F9695879553
:100D100097F90895990F0008550FAA0BE0E8FEEF28
:100D200016161706E807F907C0F012161306E407AF
:100D3000F50798F0621B730B840B950B39F40A26A8
:100D400061F0232B242B252B21F408950A2609F486
:100D5000A140A6958FEF811D811D089597F99F678A
:100D600080E870E060E008959FEF80EC0895002433
:100D70000A941616170618060906089500240A9400
:100D800012161306140605060895092E0394000C86
:100D900011F4882352F0BB0F40F4BF2B11F460FF15
:100DA00004C06F5F7F4F8F4F9F4F089557FD90583E
:100DB000440F551F59F05F3F71F04795880F97FB1F
:100DC000991F61F09F3F79F08795089512161306D9
:100DD0001406551FF2CF4695F1DF08C01616170608
:100DE0001806991FF1CF869571056105089408953D
:100DF000E894BB2766277727CB0197F90895FA0176
:100E0000EE0FFF1F309621053105A1F16115710527
:100E100061F48038BFE39B0749F1689490388105FD
:100E200061F08038BFEF9B0741F099234AF5FF3FFF
:100E3000E1053105210519F1E8940894E795D901F8
:100E4000AA2329F4AB2FBE2FF85FD0F310C0FF5FA9
:100E500070F4A695E0F7F73950F019F0FF3A38F43E
:100E60009F779F930DD00F9007FC9058089546F000
:100E70000C94B40660E070E080E89FE308954FE7CB
:100E80009F775F934F933F932F930E9447082F9133
:100E90003F914F915F910E94C3080C947B070E9481
:100EA000DE06E8F09E37E8F09639B8F49E3848F44C
:100EB000672F782F8827985FF9CF86957795679564
:100EC00093959539D0F3B62FB1706B0F711D811DBD
:100ED00020F487957795679593950C94AD070C94BE
:100EE000C8070C94F90629F416F00C94AE060C947D
:100EF000F8060C94B4060E94DE06A8F39638A0F714
:100F000007F80F92E8942BE33AEA48EB5FE70E9478
:100F1000D9080F920F920F924DB75EB70F920E94B1
:100F20008F08ECE7F0E00E94D6074F915F91EF91B8
:100F3000FF91E595EE1FFF1F49F0FE57E06844273B
:100F4000EE0F441FFA95E1F74195550B0E940908F1
:100F50000F9007FE0C94FD070895882371F4772302
:100F600021F09850872B762F07C0662311F499271C
:100F70000DC09051862B70E060E02AF09A95660FC4
:100F8000771F881FDAF7880F9695879597F9089548
:100F90009F3F31F0915020F4879577956795B795ED
:100FA000880F911D9695879597F90895DF93CF93B4
:100FB0001F930F93FF92EF92DF927B018C01689455
:100FC00006C0DA2EEF010E94D608FE01E894A59132
:100FD0002591359145915591A6F3EF010E9448095D
:100FE000FE019701A801DA9469F7DF90EF90FF9076
:100FF0000F911F91CF91DF9108959B01AC0160E0AB
:1010000070E080E89FE30C94AC050C94AE060C9461
:10101000C8070E94DE06D8F39923C9F3940F511D27
:10102000A3F39150504094F059F0882332F0660FAA
:10103000771F881F91505040C1F79E3F51052CF7F4
:10104000880F911D9695879597F908955F3FACF0AD
:10105000983E9CF0BB27869577956795B79508F4E1
:10106000B1609395C1F7BB0F58F711F460FFE8CF5B
:101070006F5F7F4F8F4F9F4FE3CF0C94F90616F0B1
:101080000C94C8070C94B40668940C94AE060E94A5
:10109000DE06A8F39923C1F3AEF3DF93CF931F933A
:1010A0000F93FF92C92FDD2788232AF02197660F1F
:1010B000771F881FDAF720E030E040E85FEB9FE31E
:1010C000883920F0803E38F021968F770E943109D0
:1010D000E4EAF0E004C00E943109E1EDF0E00E9492
:1010E000D6078B01BE01EC01FB2E6F577109759578
:1010F000771F880B990B0E944F0628E132E741E3E6
:101100005FE30E94D608AF2D9801AE01FF900F91CA
:101110001F91CF91DF910E9448090C94C506FA01F6
:10112000DC01AA0FBB1F9B01AC01BF5728F422278B
:1011300033274427507820C0B75190F4AB2F0024B8
:10114000469537952795011CA395D2F3002071F0A1
:10115000220F331F441FB395DAF30ED00C943009DD
:1011600061307105A0E88A07B94630F49B01AC01F3
:101170006627772788279078309621F0208331835F
:101180004283538308950E94D6080C94C5060E949A
:10119000B70638F00E94BE0620F0952311F00C949B
:1011A000AE060C94B40611240C94F9060E94D606DF
:1011B00070F3959FC1F3950F50E0551F629FF001AA
:1011C000729FBB27F00DB11D639FAA27F00DB11DC3
:1011D000AA1F649F6627B00DA11D661F829F22274C
:1011E000B00DA11D621F739FB00DA11D621F839FD3
:1011F000A00D611D221F749F3327A00D611D231FA9
:10120000849F600D211D822F762F6A2F11249F57F6
:1012100050409AF0F1F088234AF0EE0FFF1FBB1FF9
:10122000661F771F881F91505040A9F79E3F5105B8
:1012300080F00C94AE060C94F9065F3FE4F3983E00
:10124000D4F3869577956795B795F795E7959F5F62
:10125000C1F7FE2B880F911D9695879597F90895F4
:101260005058BB27AA270E9448090C94C5060E9423
:10127000B70638F00E94BE0620F039F49F3F19F4FB
:1012800026F40C94B4060EF4E095E7FB0C94AE063D
:10129000E92F0E94D60658F3BA176207730784072E
:1012A000950720F079F4A6F50C94F8060EF4E09575
:1012B0000B2EBA2FA02D0B01B90190010C01CA0110
:1012C000A0011124FF27591B99F0593F50F4503EBB
:1012D00068F11A16F040A22F232F342F4427585FAD
:1012E000F3CF469537952795A795F0405395C9F7C5
:1012F0007EF41F16BA0B620B730B840BBAF091507D
:10130000A1F0FF0FBB1F661F771F881FC2F70EC01B
:10131000BA0F621F731F841F48F4879577956795EE
:10132000B795F7959E3F08F0B0CF9395880F08F0DA
:101330009927EE0F979587950895991B79E004C03A
:10134000991F961708F0961B881F7A95C9F7809504
:101350000895EE0FFF1F0590F491E02D099410E021
:10136000C0E8D0E004C0FE010E94A9092196C1385E
:08137000D107C9F7F894FFCF83
:10137800018E867E77706A645E59544F4B47433FAF
:101388003B3835322F2C2A272523211F1D1C1A19DB
:06139800171615131211D7
:00000001FF
