:100000000C943E000C9448000C9448000C9448005A
:100010000C9448000C9448000C9448000C94480040
:100020000C9448000C9448000C9448000C94480030
:100030000C9448000C9448000C9448000C94480020
:100040000C9448000C9448000C9448000C94480010
:100050000C9448000C9448000C9448000C94480000
:100060000C9448000C9448000C9448000C944800F0
:100070000C9448000C9448000C94480011241FBEB6
:10008000CFEFD8E0DEBFCDBF0E94E4000C94FE00AD
:100090000C940000FC016F7D613411F4608306C094
:1000A0006234E1F36334D1F36434C1F30895089505
:1000B000FC018081813411F482E082B98081823434
:1000C00011F482E085B98081833411F482E082B931
:1000D0008081843411F482E085B90895FC01808127
:1000E000813411F481E082B98081823411F481E09D
:1000F00085B98081833411F481E082B980818434B0
:1001000011F481E085B90895FC018081813411F4F6
:1001100081E082B98FE19EE40197F1F700C0000011
:1001200082E082B98FE99FE00197F1F700C00000FB
:100130008081823411F481E085B98FE19EE40197DA
:10014000F1F700C0000082E085B98FE99FE00197D8
:10015000F1F700C000008081833411F481E088B998
:100160008FE19EE40197F1F700C0000082E088B9BA
:100170008FE99FE00197F1F700C00000808184348F
:1001800011F481E08BB98FE19EE40197F1F700C093
:10019000000082E08BB98FE99FE00197F1F700C082
:1001A00000000895FC018081813409F412B8808137
:1001B000823409F415B88081833409F412B880813F
:1001C000843409F415B80895CF93DF931F92CDB707
:1001D000DEB762E6CE0101960E944A008FEF84B935
:1001E000CE0101960E945800CE0101960E94570050
:1001F00080E090E00F90DF91CF910895F894FFCFC9
:00000001FF
